:020000040000FA
:10000000C0400020D1200000E1760000BD200000AB
:10001000BD200000BD200000BD2000000000000049
:10002000000000000000000000000000AD21000002
:10003000BD20000000000000BD200000BD20000029
:100040004123000041230000412300004123000020
:100050004123000041230000412300004123000010
:100060004123000041230000412300004123000000
:1000700041230000412300004123000041230000F0
:1000800041230000412300004123000041230000E0
:1000900041230000412300004123000041230000D0
:1000A00041230000412300004123000041230000C0
:1000B00041230000412300004123000041230000B0
:1000C00041230000412300004123000041230000A0
:1000D0004123000041230000412300004123000090
:1000E0004123000041230000412300004123000080
:1000F0004123000041230000412300004123000070
:1001000053B94AB9002908BF00281CBF4FF0FF317E
:100110004FF0FF3000F06AB9ADF1080C6DE904CE84
:1001200000F006F8DDF804E0DDE9022304B07047D2
:100130002DE9F047089D0C46002B4ED194468C4586
:100140008646B2FA82F262D94AB1C2F120039140E6
:1001500020FA03F30CFA02FC194300FA02FE4FEAFC
:100160001C471FFA8CF6B1FBF7F44FEA1E4307FB5E
:10017000141143EA014304FB06F199420AD91CEB2E
:10018000030304F1FF3080F01281994240F20F81A5
:10019000023C6344591A1FFA8EF3B1FBF7F007FBD8
:1001A000101143EA014300FB06F69E420AD91CEBFC
:1001B000030300F1FF3180F0FC809E4240F2F980A1
:1001C000634402389B1B40EA044000211DB1D34028
:1001D0000022C5E90032BDE8F0878B4205D90DB198
:1001E000C5E9000100210846F5E7B3FA83F10029CB
:1001F00046D1A34202D39042C0F0F080861A64EB4D
:1002000003030120002DE6D0C5E90063E3E7002ADF
:1002100040F09080A1EB0C044FEA1C481FFA8CF7C9
:100220000121B4FBF8F64FEA1E4308FB164443EAEB
:10023000044307FB06F0984208D91CEB030306F1C0
:10024000FF3402D2984200F2CD8026461C1A1FFAD3
:100250008EF3B4FBF8F008FB104443EA044300FBC0
:1002600007F79F4208D91CEB030300F1FF3402D2C9
:100270009F4200F2B0802046DB1B40EA0640A5E723
:10028000C1F120068B4022FA06F71F4320FA06FC34
:1002900004FA01F343EA0C03F44000FA01F8380CC5
:1002A0004FEA1349B4FBF0FE1FFA87FC00FB1E4423
:1002B00049EA04440EFB0CF9A14502FA01F20AD9FD
:1002C0003C190EF1FF3A80F08480A14540F2818014
:1002D000AEF1020E3C44A4EB09041FFA83F9B4FB0F
:1002E000F0F300FB134449EA044403FB0CFCA4456F
:1002F00007D93C1903F1FF3067D2A44565D9023B09
:100300003C4443EA0E40A0FB0293A4EB0C049C4245
:10031000CE469C4651D34ED055B1B8EB0E0364EB9C
:100320000C0404FA06F6CB401E43CC40C5E9006439
:10033000002150E7C2F1200320FA03F10CFA02FC7D
:1003400024FA03F394400C434FEA1C4800FA02FEDF
:100350001FFA8CF7B3FBF8F008FB1031230C43EACB
:10036000014300FB07F1994208D91CEB030300F19C
:10037000FF362CD299422AD9023863445B1AA4B2C0
:10038000B3FBF8F108FB113344EA034401FB07F324
:10039000A34208D91CEB040401F1FF3613D2A34297
:1003A00011D902396444E41A41EA004139E70446AC
:1003B000F0E6084606E7C845AED2B9EB020E63EB9D
:1003C000070C0138A8E73146EDE7034699E73046C8
:1003D000D4E7D6467FE7634402384DE70646234616
:1003E00008460FE7023E634430E700BF704700BF96
:1003F000F0B52E4B2E4AC3F800262E48C3F804262B
:1004000085B0C3F808264921C3F80C26C3F8102686
:10041000C3F81426C3F81826C3F81C2607F0D8F82A
:1004200006F094FC01A800F0B1FC234B1B6883424A
:1004300004D02248452107F0CBF8FEE7039A204874
:10044000492107F0C5F81F48492107F0C1F84FF4CA
:100450004041002007F0ECFB044620B11A4845213A
:1004600007F0B6F8FEE769469DF8080000F030F89E
:10047000009B039D1D44019B1E8903F00DFCAF19D9
:1004800000F0E6FF00F0BAFF01F04CFEAB5983F339
:10049000088884F31488BFF36F8FBFF36F8F7B6876
:1004A00098470A48452107F093F8FEE7000001400D
:1004B0003546526E00870000B80100201987000001
:1004C0003C8700006B87000090870000C387000016
:1004D00008B5024638B105480023452107F078F8F1
:1004E0006FF0150008BD0860FCE700BFE68700005C
:1004F00021B1012906D06FF015007047044B53F865
:1005000030007047024B03EBC0035868704700BFD0
:10051000C88200002DE9F04FDFF824B2DDB0DDE93C
:10052000688916461C466A9FDBF8005000F030FFD1
:100530007F4B0122C3F800253CA805F02BFBB8F146
:10054000000F07D0B9F1000F04DD4A4641463CA830
:1005500006F043FF33897289D6F80CA013449A44FD
:100560004FF00008C2456AD80FA93CA805F084FBEB
:100570006F4B0022C3F80025C3F8002527B12022C5
:100580000FA9384607F014F90023009331464FF6BF
:10059000FF73224609A806F0DAFB064600285FD161
:1005A00020460E9F00F08AF9874259D8DFF894A1BF
:1005B000DFF87C814FF0FF370DF11E0307AA08A971
:1005C00009A806F012FC00284ADB40F0AB8008992D
:1005D00009A806F056FC50B9BDF81E00554A4FF662
:1005E000FF7132F8023B8B423AD09842F9D1BDF804
:1005F0001E90B9F1100F3DD0B9F1220F75D0B9F1AD
:10060000010FD9D1BDF81C30202B29D808993CAA5C
:10061000204606F0EBFF074610BB9DF81C30039305
:10062000202B09D8DAF80020434B0492049A974211
:1006300037DB0023C8F800354FF0FF37BCE7679B76
:10064000669AAAEB0809994528BF99464B46414648
:10065000204606F0CBFF30B1354B0022C3F8002511
:10066000DBF8005060E066994A463CA806F0B5FE0B
:10067000C84477E7BDF81C60202EF1D108993346B5
:100680003CAA204606F0B2FF0028E9D132463CA938
:100690000FA806F030FC294B1B688342E0D10126ED
:1006A0008AE7059300F074FEC8F800951FA805F0CE
:1006B00071FA059B5A6853F8081B126805931FA826
:1006C00006F08BFE17A91FA805F0D6FA0022C8F87D
:1006D0000025039A3CA917A807F043F8059B10B919
:1006E000C8F8000568E70137A0E77B1C3FF464AF5A
:1006F000DAF80030BB429FDDBDF81C30802BAFD84C
:1007000008993CAA204606F071FF0028A8D1FFB244
:10071000BDF81C3000973CAA20210FA800F014F867
:10072000054689E7002E9BD028465DB0BDE8F08FD6
:1007300000A00250BC860000D4820000B801002056
:1007400004000020D08200002DE9F04796B0164644
:100750001D469DF87820374BDFF8E88053F83210BB
:10076000019103EBC20307465B68D8F80090186854
:1007700002AA0144302301A806F0BDFD002851D192
:10078000DDE901431C4403AA06AB214601A806F09B
:10079000DAFD002846D1049A072A43D12649059854
:1007A00006F0DFFF00283DD1079A082A3AD12349F5
:1007B000089806F0D6FFA8BB02AA214601A806F0B9
:1007C000AEFD78BBDDE901A30AEB0302944229D117
:1007D000412B27D13544302303AA294602A802968B
:1007E00006F089FDE0B9DDE9023213449D4217D3DA
:1007F0002A4602A906A806F052FB88B92A4602A991
:100800000EA806F04CFB58B99AF80030042B07D11B
:10081000202306AA0AF10101384600F0D1FD28B1D3
:10082000D8F80090484616B0BDE8F087044BD3F8DE
:100830000090F7E7D4820000158800000C880000C3
:10084000B801002004000020094A0B78400052F84B
:1008500020108B4209D0013052F82000834214BF8F
:100860004FF0FF304FF4C07070474FF4C0707047C6
:10087000DC8200001FB50F4B13F830000C4601F06E
:100880005BF950B92068816810236A46103906F078
:10089000ADFE28B1206806F0A8FE4FF0FF3006E05C
:1008A00005491022684606F05CFF0028F2D104B02A
:1008B00010BD00BFDC820000F086000013B50446C6
:1008C00006F020FB6A460146204606F026FA30B1C3
:1008D0000448452106F07CFE002002B010BD0098BF
:1008E000FBE700BF1D8800002DE9F041384F88B0BC
:1008F000064600200D463C68FFF7FAFD06A9C0B287
:1009000001F01AF9E0B92946FFF7F2FD2C2407A9F6
:10091000C0B204FB056401F00FF9A8B12C206843B4
:100920003218069B116911F0100F1DD01DB10699E8
:10093000304606F0D1FB274B1C68069806F055FEA2
:10094000204608B0BDE8F081079806F09AFE804680
:10095000079806F04AFE631EE21C13F8011F41458A
:10096000DCD19342F9D1E1E736581B4886422AD1BF
:10097000D6681089801926D25289121823D2986815
:10098000824220D240F60C6211401CD14FF480729A
:100990000192124A0092CDE90311224602910846C3
:1009A000FFF7B8FD04460E4B1B68A342C5D065B1E6
:1009B00006980021826806F043FE0A4A0A4845214B
:1009C00006F006FEB7E73C68EDE7084AF6E700BF29
:1009D00004000020000000203DB8F396440F0020E2
:1009E000B8010020608800006A8800005888000074
:1009F0007FB50D46044600212846CDE9021106F0D8
:100A00002AFB28B32368194EB34203D103AA204618
:100A100006F0B6FAE36AB34204D102AA01212046E5
:100A200006F0AEFADDE90232934288BF0393039BDE
:100A3000AB60039A2946204600F0A8FB0C4B1A68CD
:100A4000002A03DD0B48572106F0C2FD04B070BD3B
:100A500001A9FFF70FFF019805F1080106F05DFA03
:100A6000AB680198039306F0C0FDE2E73DB8F3964A
:100A70001C0E0020928800002DE9F84FDFF878B0B6
:100A80001B4C1C4D884691469A4600260B9B9E4265
:100A900001D300200FE00B9B174A9F1BB7F5806F17
:100AA00028BF4FF480673B4606EB0A01404606F03C
:100AB0009DFD10B10120BDE8F88F0A993B465A46CA
:100AC0007118484606F0A7FD0028F3D1C4F8005677
:100AD0003E44C4F80456C4F80856C4F80C56C4F88A
:100AE0001056C4F81456C4F81856C4F81C56CDE76E
:100AF000000001403546526EBC010020F0B59A4B13
:100B000043620E4603F580630021036589B0044605
:100B10000846FFF7EDFC04F120010546C0B201F0E4
:100B20000BF80346E8B90121FFF7E2FC04F14C01A0
:100B30000546C0B201F000F80346E0B9204606F0D1
:100B400060FA0546C8B900221146204606F002FAAE
:100B5000054660B385480022572106F039FD012380
:100B60009CE00022CDE90023814800232A4645214C
:100B700006F02EFDFEE70122F4E77E488022572191
:100B800006F026FD01239D4284F85830DBD194F80D
:100B900058308DF81730042B00F28380012B00F2BF
:100BA000878000F09D80FF2384F8583098E020462D
:100BB00000F0FEF90028D2D004A806F043FA01465E
:100BC000204606F0DEFA18B16B482A465721C4E7E2
:100BD00004A806F040FA80F0010104AAC9B2204638
:100BE00006F0B8F902460028B4D104A806F033FA9A
:100BF000054660BB04A92046FFF7FAFE9DF81730B2
:100C000084F85830033B012B06D8284600F0E4F85E
:100C100010B1FF2384F858309DF81730023B022BA7
:100C20000BD8002000F0C2F838B1FF2384F8583008
:100C30005248452106F0CCFCFEE794F85830FF2BD3
:100C4000F6D004AA0021204606F084F987E79DF833
:100C50001770012F17D1104603F0CAF8831E022B1C
:100C600005460DD839462046FFF73EFE444B1B682B
:100C7000984205D0434B1D68A84214BF05250125A5
:100C800084F8585083E701212046FFF72DFE3C4BA6
:100C90001B6898420CBF9DF81730052384F8583024
:100CA00075E7052B7FF47FAF002000F095F811E089
:100CB00004A92046FFF79CFE94F85830DA1E012A5A
:100CC0000CD8002000F088F800287FF46CAF0020DA
:100CD00000F06CF800287FF466AF01E0022BF6D03C
:100CE00094F85830FF2B04D12448452106F070FCBD
:100CF000FEE70022012B244D039214D0114620461A
:100D000006F028F978B12D68102200210DEB0200C1
:100D100006F059FDE06C06F068FC206A06F065FC00
:100D2000284609B0F0BD00212046FFF7DDFD144F35
:100D30003B689842E7D12B689842E4D0114B1B687E
:100D40009842E0D0039B01330393039B012B00D017
:100D5000FEE7206A05F0DFFF3071236A5B683460CC
:100D60003D68B360D0E700BFBC050020508900009B
:100D7000C18800000E8900007C890000A68900005F
:100D8000B8010020000000200400002038B5064D06
:100D9000044660220021284606F015FD214628461B
:100DA000FFF7ACFE38BD00BFBC0D002013B5094BEA
:100DB00001A913F8300000F0BFFE48B9019806F011
:100DC000F0FF0446019806F010FC204602B010BD6A
:100DD0000124FAE7E48200001FB50F4B01A913F8C4
:100DE000300000F0A9FEA8B9019802A902F0AAFFFC
:100DF000044668B99DF80B30032B03D1019806F027
:100E00009EFF0446019806F0F0FB204604B010BD9A
:100E10000124F7E70124F8E7E48200002DE9F3411B
:100E200006460C4617461D460BB9002628E0184614
:100E300006F011F90028F8D16946FFF71BFD00986C
:100E400038B90124009806F0D0FB204602B0BDE876
:100E5000F08101A906F061F80028F2D1009806F0AF
:100E6000C4FB3046019906F0D9F9736A5E686B7964
:100E7000012B21D1002CD8D12B68834298BF0026AA
:100E800021460020FFF734FB6946C0B200F054FE53
:100E90000028D6D1009820233A46314606F0A6FB1A
:100EA00004460028CDD1002DCCD03C680D4BE41A6F
:100EB00018BF4FF0FF34C5E7022BB6D12B68012BCA
:100EC00005D98342B1D8B4FA84F46409ADE7ACD152
:100ED000002CD5D0012CA8D12C79023C18BF0124BC
:100EE000A3E700BF3DB8F3962DE9F04F074685B064
:100EF0000C46014600201646FFF7A6FC051E50DBF7
:100F00003846E46D05F0FEFF5FFA84F96B1E09FBBD
:100F100003084FF0000A4FF0010B4FF0FF349DB96A
:100F2000BAF1010F03DD2148452106F051FB631C96
:100F300006D07F2C2ADC013440F201133460B380E8
:100F4000284605B0BDE8F08F6B1E00930DF10F022F
:100F500001234146384606F049FB031E019322DB7C
:100F600001220DF10F01384606F084FE019B40B1CD
:100F70005B4501D00AF1010A009DA8EB09089B46D8
:100F8000CDE7B4F1FF3F08BF2C46F5E70223803CD4
:100F90007371631004F00104013301343360347160
:100FA000CEE70725CCE70125CAE700BFB2890000DC
:100FB00070B5866A456D044606F01FF9AE420AD048
:100FC0006B1CB34207D0834205D01448572106F06A
:100FD000FFFA002070BD802E1CD911485721F6E77A
:100FE000626A216D02EBC30201EBC30152684968DA
:100FF000914202D00B485721E9E701339D42EFD1DE
:10100000AE4205D9636A03EBC5035B689342F1D135
:101010000120DFE700231A46F0E700BFD589000072
:101020000D8A00003C8A000000B589B004A90220A6
:1010300006F092FE9DF81020012A41D0254B26494A
:10104000032A08BF0B469DF8132002929DF8122038
:1010500001929DF81120214800924921204A06F072
:10106000B7FA06A9052006F077FE9DF81820012A98
:1010700028D0184B1849032A08BF0B469DF81B209F
:1010800002929DF81A2001929DF8192000921348AF
:10109000144A492106F09CFA9DF81030012B13D117
:1010A0009DF81230032B0FD19DF81830012B0BD077
:1010B0000D48492106F08CFA022009B05DF804FBC6
:1010C0000A4BC0E7094BD9E70948492106F080FAE5
:1010D0000020F2E7688A0000718A0000858A00001B
:1010E000778A0000C68A0000D68A00006C8A000059
:1010F000F58A000070B54B6814461E4A03F0FF23C2
:10110000934286B006460D462FD10B68012B2CD199
:1011100004A9204602F016FE9DF81020012A26D0D0
:10112000154B1649032A08BF0B469DF8132002925F
:101130009DF8122001929DF8112000921048114A4A
:10114000492106F045FA9DF81030032B0DD12146B8
:10115000304605F0C1FF204606F0F1FDA9682046A3
:1011600005F0E9FE204602F0CDFD06B070BD064B4D
:10117000DBE700BF00010004688A0000718A0000FC
:10118000858A0000C68A00006C8A00002DE9F04FB5
:10119000164689B005460C467448492106F018FAEF
:1011A0003146284606F03AF86B6A824620465E6869
:1011B00005F051FFE8B1E86D05F09FFEAF6A00232E
:1011C000013F3344834201D2013FFAE7BA4510D3CD
:1011D0006748572106F0FCF907FB06F365480AFB50
:1011E0000662572106F0F4F90123E37109B0BDE866
:1011F000F08F06A9022000F09FFC07A9052000F04F
:101200009BFC079A21462846FFF774FF6379012B60
:101210004BD1DFF864B1574641E02268C2F10103C7
:1012200053449F423AD86B6A196853F8370003EB6E
:10123000C703012A53F8083CA3EB0103A0EB010903
:10124000049311D1079B0393E368022B08D0414616
:10125000284605F041FF22464146284605F072FF28
:101260000399284605F038FF32464946404605F0C6
:1012700031FF049B42464146CDE900962846FFF7E0
:10128000FBFB2146284605F0F3FE2368013323606B
:1012900020B1DBF800300133CBF80030013FDDF83E
:1012A0001880002FB9D10123236002236371012725
:1012B000BA45DDF8189006D2484606F096F9079828
:1012C00006F093F992E723689F424DD36A6ADDF8EE
:1012D0001CB052F837100491FB00083B11680391D1
:1012E000D1582A6DD0581368A0EB03082379012B3D
:1012F00038D1039B3246C91A4846059105F0EAFEEB
:101300000599009143464A46594601962846FFF7FB
:10131000B3FB2146284605F0ABFE0223237118B12A
:10132000154A13680133136032464146584605F0AA
:10133000D1FEDDE9032349469B1ACDE900865A46D2
:101340002846FFF799FB2146284605F091FE2368C1
:10135000013323600123237130B1074A136801333D
:10136000136001E0022BDFD00137A1E70C8B0000F6
:10137000358B0000648B00001C0E00200A4619B15A
:10138000024B00211B681847704700BF080000206F
:1013900070B5094D2B780BB1002070BD074C0126AC
:1013A000C4F8006504F098FC18B92E70C4F8000564
:1013B000F2E74FF0FF30F0E74410002000A00250A9
:1013C0002DE9F041DFF83080ACB01F4606460C46F0
:1013D0001546FFF7DDFF0123C8F800352A463346DE
:1013E0000097214603A806F0C8FD0023C8F8003581
:1013F0002CB0BDE8F08100BF00A00250BFF36F8F9A
:1014000072B6124B4FF0FF32C3F88020C3F884202D
:10141000C3F88820C3F88C20C3F89020C3F8942028
:10142000C3F89820C3F89C20C3F88021C3F8842116
:10143000C3F88821C3F88C21C3F89021C3F8942104
:10144000C3F89821C3F89C21704700BF00E100E079
:10145000F8B5254B254D4FF0FF3401275F60C3F8E9
:101460004843C3F8084303F5C04300265F60C3F850
:101470004843C3F8084303F5983302205F60C3F87C
:101480004843C3F80843C5F8084300F0ADFE6F6059
:10149000C5F84C61D5F84C31C5F81061D5F810315C
:1014A000C5F84461D5F84431C5F8006505F518352F
:1014B0002820C5F8084300F097FE6F60C5F84C611E
:1014C000D5F84C31C5F81061D5F81031C5F8446134
:1014D000D5F84431064BC5F80065C3F808454FF010
:1014E0008043C3F80843F8BD00B00040002000402E
:1014F00000F00140014B1B68184700BF0C000020A2
:1015000007B50B46002102460091034800F006F89B
:1015100003B05DF804FB00BFF51400002DE9F04FA7
:101520008DB01D46531E8246019103934FF0000972
:10153000039B5878252803F1010419D11E46002089
:101540004FF0FF3802360346029044463178039646
:10155000392954D81F2914D8002900F0E8810199AD
:101560002520D04701993078D04709F10209DFE7FB
:10157000002800F0DC810199D04709F101090394AA
:10158000D6E7A1F12002192AE9D801A757F822F0DD
:10159000F91500005F1500005F150000F915000047
:1015A0005F150000791600005F1500005F15000050
:1015B0005F1500005F150000C5160000F91500005A
:1015C0005F150000D9160000851600005F150000A9
:1015D00093160000B3160000B3160000B316000007
:1015E000B3160000B3160000B3160000B3160000D7
:1015F000B3160000B316000008460136A6E75829C6
:1016000000F00F81A1F16302D7B2172FA7D8172AD4
:10161000A5D801A757F822F07F180000FF16000098
:101620005F1500005F1500005F150000DF16000069
:10163000FF1600005F1500005F150000DF160000B8
:101640005F1500005F1500005F150000CD1700005A
:101650005F1500005F1500005F1800005F150000B7
:10166000FF1600005F1500005F150000CD17000099
:101670005F150000DF16000001992520D04709F111
:10168000010955E7029A02F0FE0202924FF00008AB
:10169000B3E7002C0DDAB8F1000F0DDA029A002A38
:1016A00000F0398124EAE4740A2202FB0414303C7D
:1016B000A3E7B8F1000FF5DB0A2202FB0812A2F142
:1016C00030089AE7B8F1000F55F8042B80F2258115
:1016D000002A80F224815442022202928DE7682976
:1016E00003D1682B06D1482387E76C2902D16C2BE4
:1016F00000F01781002B7FF432AF0B467DE77A2B89
:1017000006D1752955F8046B14D14FF0000B0CE08D
:101710006C2BF6D04C2BF4D1073525F00703752937
:10172000D3E9006B03F1080506D1202847D1824F89
:10173000013C09E04FEAE67BBBF1000FF5DA7642A7
:101740007E4F6BEB4B0B013C0DF12D0305930023FA
:101750000493304659460A220023FEF7D1FC059B2C
:10176000303203F8012DB446049A0593BCF10A0FF8
:101770005B4673F100038B4602F1FF31064604918C
:10178000E7D2C2F1010B02F130030DEB0306B8F111
:10179000000FA6F1040604DA029B13F0010F18BF34
:1017A000A046A8EB0B03002B0493029BD4BFA4EB31
:1017B0000B04A4EB08049B0774D4A0466AE02B2812
:1017C0000ABF5F4F5F4F04F1FF34BDE7702927D197
:1017D00055F8042B0023002A00F0A5805A4F023C44
:1017E00001F06001A1F1390B0DF12D0E002602F080
:1017F0000F01092988BF594430310EF8011D102A04
:101800004FEA121141EA03714FEA131C73F100030E
:1018100006F1FF301FD2C6F1010B06F13003B4E729
:1018200078216C2B03D155F8042B002308E04C2BB6
:10183000F9D1073525F007031D465B6855F8082BDD
:10184000232806D14048414F11F0200F18BF07460A
:10185000C5E73C4FC4E706460A466346C7E755F866
:10186000046B304605F076FFB8F1000F834602DBCB
:101870004045A8BFC346334F4FF0000891E755F8E5
:10188000043B8DF818304FF0010B06AEF3E70199D9
:101890002020D047B8F10108F9D524EAE472013CD0
:1018A0009144A41AB84604E002920199D047029AE2
:1018B0009046424612F8010B0028F5D1049A013AED
:1018C00016D5049B5A4623EAE373013A16D5BBF1B9
:1018D000000FACBFC7EB0B077F421F444F442646A7
:1018E000013E14D5002CA8BF3F1907EB08091FE6DD
:1018F000029201993020D047029AE0E704930292C5
:10190000019916F8010BD047049B029ADDE7019973
:101910002020D047E4E70122DFE690466DE614463A
:101920006BE64C2369E60A4E4FF0050BA3E74846E9
:101930000DB0BDE8F08F00BF3A900000018C0000B0
:10194000038C000044960000058C0000088C000009
:101950000B8C00002DE9F84F058B044628079046B4
:101960000CD501290CBF45F0100545F02005258355
:1019700088F31188BFF36F8FBDE8F88F6A4E05F0CA
:10198000070502290DD1204605F051FD0028EFD0B2
:101990000138238B042871D8DFE800F0037054600D
:1019A00068006769218B002F1BDA0023D4F80090B0
:1019B000C4E9003321F0070141F0010121834FF018
:1019C000000A228B02F0070BAB4502D0A368002B64
:1019D0005AD1B9F1000F02D1BAF1000F71D0002332
:1019E00053E001F007035A1F012A1BD8002221F0FF
:1019F0000701062BD4F8009089B2C4E9002209D16E
:101A00004B4603E0628B013262831B68002BF9D1E5
:101A100041F002012183204605F009FD90B341F019
:101A20002001CBE7042B0AD121F0070189B22183E1
:101A3000204605F0FCFC10B141F0200121834FF05D
:101A40000009BCE7226923F00703D2F800A043F0A5
:101A5000060323834FF000094F46B2E7226923F0C3
:101A60000703D2F804A043F00403F2E7226923F04D
:101A70000703D2F808A043F00503EAE74FF0000996
:101A8000CA46E9E782469CE7012342F00802228326
:101A900088F31188BFF36F8F0BBBB9F1000F31D101
:101AA000BAF1000F02D031462046D047EFF311883B
:101AB000202383F31288BFF36F8F238B23F0080357
:101AC0002383238BDA0626D523F0100323830121F9
:101AD000258B05F0070500297FF453AF48E7A1687F
:101AE0000029DAD00D680029D7D0D1F804803B4610
:101AF0005A462046C0471DB12B6829461D46F2E7CD
:101B00002B46FAE749463B465A462046D9F800900C
:101B100005F0B9FCC1E713F020011EBF23F020033C
:101B200023830221D4E700BFB3740000014B03609C
:101B300000207047F082000070B5114B1C680D4604
:101B4000DCB1104B196800238B4202DB6FF00100FF
:101B500070BD224612F8106B864202D00133144643
:101B6000F2E7E06810B96FF01200F1E706F0CFF984
:101B70000028F8D02C600020EAE76FF00C00E7E7BF
:101B800010000020F082000070B588B005460C46B9
:101B9000C0B269461646FFF7CFFF00281BDB00984E
:101BA000C8B143680293836822680195CDE9033682
:101BB0000023CDE906230593C56805F016FD6DB138
:101BC0002846084901AA05F009FF079808B9059BAE
:101BD000236008B070BD6FF01500FAE76FF01200D7
:101BE000F7E700BF9176000008B5054805F012FC44
:101BF000044805F00FFCBDE80840034805F00ABCA6
:101C0000248C0000558C0000888C0000014803F0F3
:101C100013BD00BF5483000037B505460C46C9B15B
:101C20008B680093D1E900231248452105F0D0FCD0
:101C300063690093D4E903230F48452105F0C8FCEC
:101C4000E2690E48452105F0C3FCA2690C48452114
:101C500005F0BEFC012D06D1EFF305820948103ACC
:101C6000452105F0B5FC2146284603B0BDE83040CB
:101C700003F02CBBB68C0000EA8C00001E8D000027
:101C8000328D0000658D000030BFFFF7FDBF00BF43
:101C90002DE9F843364D804689463648452117469A
:101CA00005F096FCAB6ADE0626D53348452105F0E3
:101CB0008FFC1124AB6A1D0704D53048452105F07F
:101CC00087FC12242A4DAB6A980717D545212C486A
:101CD00005F07EFC6E6BAB6A190645D52948324685
:101CE000452105F075FCB9F1000F03D0AB6A23F074
:101CF0008003AB62132403E01024DBE76FF01506CA
:101D00001B4DAB6ADA0704D51F48452105F060FC7E
:101D10001424AB6A9B0604D51C48452105F058FCE9
:101D20001524134B9A6AD50602D49A6A90070AD5ED
:101D30005B68190507D54146304600F0BDFA10B181
:101D400080F3098802240A4B9A6A920642BF5A6AB3
:101D500022F400525A629A6A42F0FF029A62002309
:101D60003B702046BDE8F8836FF01506C2E700BF60
:101D700000ED00E07D8D0000988D0000D08D00000A
:101D8000E88D0000058E0000208E0000448E0000CB
:101D900010B5204C2048452105F01AFCA36A990192
:101DA00036D51E48452105F013FC1E20A36ADA0132
:101DB00004D51B48452105F00BFC1F20154CA36AD8
:101DC0001B0304D51748452105F002FC2120A36A16
:101DD000590304D51448452105F0FAFB22200D4C87
:101DE000A36A9A0304D51148452105F0F1FB23208D
:101DF000A36ADB0304D50E48452105F0E9FB242046
:101E0000044A936A6FEA03436FEA1343936210BD77
:101E10001D20CBE700ED00E0788E0000958E0000DD
:101E2000AD8E0000CC8E0000EF8E0000198F0000F8
:101E3000388F000070B5284C06460D4627484521CE
:101E400005F0C6FBA36AD9043BD52548452105F01A
:101E5000BFFB1720A36A1A0504D52248452105F0C7
:101E6000B7FB18201C4CA36A9B0511D51E484521C1
:101E700005F0AEFBA26BA36A180408D51B484521E8
:101E800005F0A6FB1EB1A36A23F40043A362192048
:101E9000114CA36A590504D51548452105F098FB56
:101EA0001A20A36ADA050ED51248452105F090FBE9
:101EB0001B20094A936A43F47F43936200232B70EB
:101EC00070BD1620C6E7A36A9B04F2D50A484521D7
:101ED00005F07EFB1C20ECE700ED00E0688F0000C1
:101EE000838F0000D08D0000998F0000B78F000015
:101EF000D18F0000F18F0000448E00002DE9F041E9
:101F00005D4B5F688AB00546C7F30804002686F378
:101F10001188BFF36F8F02F07F43B3F17F4F07D17A
:101F200002F00C03082B14D15448452105F050FB56
:101F3000002635464FF00008E31E8DF80780092B78
:101F400000F28780DFE803F00A7A7E768585858552
:101F5000858210074CBF0D460126EBE74848464CEA
:101F6000452105F035FB8DF80780E36A9A0705D512
:101F70004448452105F02CFB002433E0E36A002BA4
:101F800002DA41484521F5E7E36A5B00F4D53F48B2
:101F9000452105F01DFB6369AA6943F48073636101
:101FA000BFF34F8FBFF36F8F636932F8022C23F4B6
:101FB00080736361BFF34F8FBFF36F8F4DF6027372
:101FC0009A4209D0A36ADBB233B30DF107020121B3
:101FD0002846FFF75DFE2FE02A682D48452105F0D1
:101FE000F7FA2C689DF807309BB92022294602A8F1
:101FF00005F0DEFB099B002E38D0C3F3080222B99E
:102000006FEA53236FEA4323099302A92046FFF79F
:1020100003FE0AB0BDE8F081A36A13F47F4F05D038
:102020000DF107010120FFF705FF05E0A36AB3F5F5
:10203000803FA1D3FFF7ACFE0446D3E70DF10702C2
:102040000021C5E70DF107010020ECE7114845210B
:1020500090E71149114A124817F4F87F08BF0A4661
:10206000A4F11003452105F0B3FA85E723F4FF73CB
:1020700023F00103C8E700BF00ED00E03C90000042
:102080006C90000088900000AE900000C1900000AD
:10209000E5900000069100000E90000023900000E3
:1020A0002F910000044B5A6942F010025A615A699C
:1020B00022F008025A61704700ED00E0EFF308805B
:1020C000EFF3098101B57246FFF718FF01BD00BFAC
:1020D000002080F31488BFF36F8F01F023FF0020EE
:1020E0000D490860BFF34F8F0C4880F3088800F05B
:1020F0002BF8202080F3118809484FF40461401820
:1021000080F30988EFF314800221084380F31488D8
:10211000BFF36F8F00F0A2F894ED00E0C040002004
:10212000801000200749D1F890200023C2F3072235
:102130001846934200DB7047C1F89830C1F8A00000
:102140000133F6E700ED00E008B572B6002383F333
:102150001388FFF7E7FF144B4FF0FF32C3F88020DE
:10216000C3F88420C3F88820C3F88C20C3F89020DB
:10217000C3F89420C3F89820C3F89C20C3F88021AA
:10218000C3F88421C3F88821C3F88C21C3F89021B7
:10219000C3F89421C3F89821C3F89C2162B6BFF319
:1021A0004F8FBFF36F8F08BD00E100E01EF0040FFA
:1021B0000CBFEFF30880EFF30980816911F8021C6E
:1021C0000229FFD001B505F087FA01BD40B2002811
:1021D00007DB044A4109012300F01F00834042F855
:1021E0002130704700E100E040B200280CDB4309D9
:1021F000064900F01F0020330122824041F82320CD
:10220000BFF34F8FBFF36F8F704700BF00E100E057
:10221000054B420900F01F0053F82220012303FA66
:1022200000F01040704700BF00E100E040B200281D
:10223000A8BF00F1604001F10101B8BF064B4FEAB1
:102240004111ACBF00F5614000F00F00C9B2B4BF4E
:10225000195480F80013704714ED00E0144A08B5D3
:10226000144B22F07F029A60BFF34F8FBFF36F8F42
:10227000D3F8882022F47002C3F88820D3F888208D
:1022800042F4A002C3F888204FF04042C3F8342241
:10229000BFF34F8FBFF36F8F0023E1EE103A03F0CF
:1022A0007BF803F0C1F800F03FF803F081F800BFBD
:1022B0000000000000ED00E010F1160F074B08D001
:1022C000984208D34033834205D98B4203D904484E
:1022D00070474033F9E70020704700BFC018002066
:1022E0000019002080B5154606460C460022E1EE96
:1022F000102A074F87F309884FF0000005498847E7
:10230000204629461A46B04703488047FEE700BFEB
:1023100000410020F976000007770000014B1022F1
:102320001A61704700ED00E0044800232021C21824
:102330000133302B82F80013F9D1704700E100E03F
:1023400008B5EFF30583064A103B02EBC30152F8D0
:10235000330049688847BDE8084005F0C8B900BFA8
:10236000A4800000024B034A0348022100F074B825
:1023700000000420000000205C83000008B5104A23
:10238000D2F89030C3F30723013B984207D90246A5
:1023900045210C4805F01CF96FF0150008BDC2F886
:1023A00098000B6823F01F03034343F01003C2F8A7
:1023B0009C308B6843F00103C2F8A030EEE700BF09
:1023C00000ED00E04B910000F0B50F4685B01C46D3
:1023D00005460026BE420CDA686808B38CB1431E7D
:1023E000184209D010483246452105F0F1F86FF047
:1023F0001502104605B0F0BD1F28F3D929680B421D
:10240000F0D12B68019305F095F9AB6801A903435E
:10241000D0B20393FFF7B2FF10F1160FE7D0421CC2
:1024200001360C35D6E700BF76910000044B05223B
:10243000C3F89420BFF34F8FBFF36F8F704700BF77
:1024400000ED00E0BFF35F8F024B0022C3F8942041
:10245000704700BF00ED00E010B5034C0123227867
:10246000FFF7B2FF207010BD451000202DE9F043AA
:1024700057485849D0F890300D68C3F307239D4260
:1024800085B000F2A180FFF7DDFF49680022954288
:1024900001F10C011AD1504C504F25706846FFF7DE
:1024A00045FBDFF83C81DFF83C9106460025AE4253
:1024B0001FD1237846490020D1F89020C2F307228B
:1024C00093427BDBFFF7B2FF00204CE0C0F898207E
:1024D00051F80C3C23F01F03134343F01003C0F8E2
:1024E0009C3051F8043C43F00103C0F8A0300132A5
:1024F000CDE7009800EB05114FEA051CCB683B4087
:10250000B3F5000F44D00AD8B3F5001F2ED0B3F5B1
:10251000800F34D0B3F5801F10D00135C7E7B3F179
:10252000807F3ED0B3F1007FF7D150F80C3088683F
:102530004A6805F0FFF840F4802009E050F80C30BC
:1025400088684A6805F0F6F840F0885040F430207A
:10255000039001A92078CDE90123FFF70FFF0028A0
:1025600028DA6FF0150005B0BDE8F08350F80C30A4
:1025700088684A6805F0DEF840EA0800E8E750F8A5
:102580000C3088684A6805F0D5F840EA0900DFE7B2
:1025900050F80C3088684A6805F0CCF840F082703A
:1025A000D6E750F80C3088684A6805F0C3F840F068
:1025B0008870CDE7237801332370AEE7C1F89830F7
:1025C000C1F8A000013377E74FF0FF30CBE700BF41
:1025D00000ED00E074830000451000200000F0FFD3
:1025E00000000811000002020E4A0123C2F8403523
:1025F0004FF080424FF08051C2F87835D1F8300169
:10260000082808D1D1F83411052904D80648415CBE
:1026100009B1C2F838364FF080430122C3F8802553
:102620000020704700E00140AD91000020B1034B55
:10263000800143F001031847704700BFC0820000CB
:10264000084B70B5C31A0D4607499B100446594301
:102650000648402205F0C9F82B4601462046BDE851
:1026600070401847340E0020B76DDBB62C80000098
:1026700073B50C4C0C4A4023041B00930D460B46CB
:102680000A49A41061430646094805F0DAF8011E1C
:1026900005DA30462B4602B0BDE87040184702B05C
:1026A00070BD00BF340E0020B5780000B76DDBB6FA
:1026B0002C80000010B5EFF31184202383F31288DF
:1026C000BFF36F8F074A136823F00201DB07116025
:1026D00002D4012005F07CFB84F31188BFF36F8FD7
:1026E00010BD00BF840E0020002270B501210446F9
:1026F0001046FFF79BFD0F4801F09EFD0E4B9842E0
:1027000015D101F0A9FD26690C49304604F0DFFE21
:1027100000280BDB012535642469084904F11C00FD
:1027200004F0D5FE002801DBE564002070BD6FF0E9
:102730000400FBE7092800000000AD0B94830000B3
:1027400030B4104B0C2202FB003301460020D3E9C9
:102750000E529863EFF31180202484F31288BFF3A4
:102760006F8F1C6C04F0C00444F002041C6480F3FE
:102770001188BFF36F8F1DB12B46034830BC18473B
:1027800030BC7047340E00202C80000010B4EFF3F2
:102790001180202282F31288BFF36F8F18490B68D3
:1027A00043F0020413F001030C601AD04FF0804391
:1027B000D3F80C14D3F80C3413F0010311D0EFF359
:1027C000118182F31288BFF36F8F0E4A136C03F0EE
:1027D000C00343F00203136481F31188BFF36F8FCA
:1027E000012380F31188BFF36F8F23B15DF8044B91
:1027F0000020FFF7A5BF5DF8044B012001F03EBDAE
:10280000840E0020340E002010B1012804D070473F
:10281000034B1B6C5B0701D1FFF792BF704700BFF2
:10282000340E00202DE9F8433649BFF35B8F07468D
:10283000012251E8003F41E800200028F9D1BFF310
:102840005B8F33B9304931484B60CB608A6004F00C
:1028500051FE7B1E012B2DD8012F07D14FF0804355
:10286000D3F81C3403F00303012B23D005F07FFBC6
:10287000054608BB264B1B78F3B14FF0804302227C
:10288000C3F808230646DFF88C904FF080444FF0E1
:102890000108D4F81824D4F81834D20315D503F05D
:1028A0000303012B01D0012F0FD125B386F311882B
:1028B000BFF36F8FBDE8F883EFF31186202383F316
:1028C0001288BFF36F8F0125DDE7304604F023FF48
:1028D000D4F81835002BDCD1D4F80421002AD8D044
:1028E000C4F80431D4F80431C4F81885C9F88081DB
:1028F000C4F80880CDE74FF080430222C3F80423D8
:10290000D8E700BF300E0020200E0020500E00201F
:102910004B10002000E100E000F1744000F5A6003B
:102920000A289ABF024B33F910006FF00F0070476E
:10293000DA860000024B0B6001231360704700BF72
:102940005484000000487047D483000037B50D461A
:102950004168B1B1D1E900138468A4B1D4E900247D
:1029600094B18BB19C4208D10133092B00780ED968
:1029700002465721104804F02BFE6FF0150003B0FB
:1029800030BD0B46E8E7224601332344EDE78DF8DE
:10299000013040F201138DF80000ADF802306846B6
:1029A00000238DF804308DF8055002F071FB03B060
:1029B000BDE83040FFF7B0BFE09100000268154B62
:1029C000FF2A08BF4FF0FF32C3F824254268FF2AD0
:1029D00008BF4FF0FF32C3F828258268FF2A08BFDE
:1029E0004FF0FF32C3F83025C268FF2A08BF4FF00E
:1029F000FF32C3F834250269FF2A08BF4FF0FF32C7
:102A0000C3F838254269FF2A08BF4FF0FF32C3F8E8
:102A10003C2570470090024038B50F4B9942044660
:102A20000FD1EFF31180202383F31288BFF36F8F50
:102A30001D46237833B10023237080F31188BFF340
:102A40006F8F38BD04F067FEEFF3118085F31288B5
:102A5000BFF36F8FEDE700BF0000AD0B2DE9F04F26
:102A6000824685B00E46904672B1002B00F08E80F3
:102A7000002E416803DBC96AF2188A4209D944482A
:102A80003246452104F0A4FD6FF0150005B0BDE805
:102A9000F08F754205F003059D4228BF1D46D8F111
:102AA000000202F0030208F0030758BF57427F42BA
:102AB00007F003079F4228BF1F465A1BDB1B23F06A
:102AC000030322F003099945C8BF994602F0030B9E
:102AD000C8BFA2EB030BB9F1000F19D008EB070335
:102AE000721949461846019305F005FA0446014655
:102AF000DAF81000FFF790FF264A94423CD1BD421D
:102B000006D0019B4A46194608EB050004F039FE41
:102B1000BDB1C5F10407F21B042102A805F0EBF9D1
:102B200004460146DAF81000FFF776FF194B9C4285
:102B300022D107F108032A460DEB0301404604F0B9
:102B400037FEBBF1000F16D0082172194A440DEB75
:102B5000010005F0D0F904460146DAF81000FFF74D
:102B60005BFF0C4B9C4207D109EB05005A4602A9BA
:102B7000404404F01DFE074CDAF8100004F0E1FEBA
:102B8000204605B0BDE8F04FFFF7C6BE18467DE70A
:102B9000089200000000AD0B2DE9F3470E460746F2
:102BA00041681D4690469AB193B1042B01D9AB07F9
:102BB0000ED116F003000BD1002E03DBCA6A731985
:102BC00093420BD934482B463246452104F000FD90
:102BD0006FF01504204602B0BDE8F08704F07EFED9
:102BE0000446002849D1032D1ED8042132460DEB9E
:102BF000010005F080F9044601463869FFF70CFF33
:102C0000264B9C4235D12A46414601A804F0D0FD0E
:102C1000042132460DEB010005F06AF90446014635
:102C20003869FFF7F9FE24E008F06043B3F1005F74
:102C300002D118F0030F2BD0DFF860A0042DA946B5
:102C400028BF4FF004094A46414601A804F0B0FDF0
:102C50003246494601A805F04BF904460146386959
:102C6000FFF7DAFE544504D1B5EB0905C8444E44DC
:102C7000E4D12046FFF750FE0446012004F02EFE6A
:102C80000546386904F05DFE002C08BF2C46A1E71C
:102C9000324629464046BFE7569200000000AD0B81
:102CA0002DE9F84F0746D0F804800E46C1F30B0318
:102CB000154622B96FF015042046BDE8F88FC2F31F
:102CC0000B001843F6D1002904DB8B18D8F82C2010
:102CD000934206D90A4635482B46452104F078FC34
:102CE000E8E704F0FBFD044600284FD1DFF8CCB044
:102CF000DFF8CC90D8F82C30AB4217D105F0FEF8B5
:102D0000AA46044638692146FFF786FE4C4541D164
:102D10005644A5EB0A05012004F0F5FD041E29DB4D
:102D200014F00104F7D1002DE4D129E0B5F5803F7E
:102D300009D3B3B253B93146012002F027FA4FF458
:102D4000803A0446DEE7B5F5805F09D3C6F30B0091
:102D500030B9314602F01AFA4FF4805A0446D1E7EE
:102D600013482B463246452104F032FC4FF0000A4E
:102D70005C46C7E70F482B463246452104F028FC45
:102D8000012004F0ABFD002C08BF0446386904F0B4
:102D9000D8FD91E708482B463246452104F018FC3F
:102DA0002046FFF7B9FD0446EAE700BFA592000000
:102DB000F492000017930000399300000400AD0B5B
:102DC0000000AD0B2DE9F04743685D6B94B00746FA
:102DD0000EAA0021284604F082FE041E6FDB0E9B23
:102DE0002A681979186800F09FFB041E67DB00222F
:102DF00001212920FFF71AFAD7F804803A696D49B2
:102E0000404602F025F9FFF787FD041E52DB6A4DAC
:102E10000FCD0EAC0FC495E8030000260DF1140988
:102E200084E803000596AB23C9E901668DF81430E8
:102E3000624BD3F82425D2B20892D3F82825D2B217
:102E40000992D3F83025D2B20A92D3F83425D2B2FF
:102E50000B92D3F83825D2B20C92D3F83C350EA899
:102E6000DBB20D93FFF7AAFD012002F067F908AD70
:102E700001462846FFF7A2FD514B994223D1314626
:102E80004846FFF763FD041E14DB082005F03AF8FE
:102E90004FF0030A9F2331460EA8CDE90E66CDF808
:102EA0002090CDF824A08DF838301095FFF74EFD16
:102EB000041E0BDA02F060F908B102F04BF920466B
:102EC00014B0BDE8F0876FF00404F3E752464946BA
:102ED00008F1300004F045FCB0B198F832300393AB
:102EE00098F83130029398F8303001939DF81630FD
:102EF00000939DF814209DF815303248452104F0C8
:102F000067FB6FF01204D5E77A68537F023B012B11
:102F100010D9127F023A022A8CBF00270127022013
:102F200004F0F1FC041E07DA27482246452104F08C
:102F30004FFBBFE70127F2E7E3B2C4F34004A74227
:102F400001D10024B6E783F0020300260120ADF88A
:102F500010608DF8113004F0D6FC041E0FDA1B4807
:102F60002246452104F034FB19491A4A1A48002F19
:102F700008BF0A462346452104F02AFB9AE704AB22
:102F80000893012102230EA88DF810400E96099394
:102F900010968DF838100F95FFF7D8FC041E07D156
:102FA000012004F0B0FC041EDEDBE307F8D4C8E720
:102FB00080DAD9E7D57800008082000000900240D6
:102FC0000000AD0B6293000099930000AE930000E7
:102FD0005C930000738A0000CC930000024B0B60EE
:102FE00001231360704700BF880E0020004870471F
:102FF0007084000010B504F077FF034C206004F0EB
:103000006FFF6060002010BD880E002070B50D4677
:103010002846194616461C4604F098FC40B9084854
:1030200023462A46452104F0D3FA6FF0150070BDFF
:1030300024B122462946304604F0BAFB0020F6E7C8
:10304000F59300004FF08042D2F81015D2F81035F9
:1030500001F01E0123F01F030B4343F00103C2F8EC
:103060001035024B00221A70704700BF4810002034
:103070004FF08053D3F83031082B20D14FF08042ED
:10308000D2F81015CB071AD5D2F8103501F01E0171
:1030900023F01F030B43C2F81035D2F808315BB19F
:1030A000D2F8103523F01F030B4343F00103C2F89D
:1030B00010356FF08B007047024B01221A70002010
:1030C000704700BF481000202DE9F0410F4615461B
:1030D00004F006FF29460646384604F037FCB84699
:1030E00060B3B7FBF6F306FB137323B9B5FBF6F435
:1030F00006FB145444B114482B463A46452104F0CB
:1031000067FA6FF0150413E0AE4211D804F0E8FE40
:103110000E4F0646FFF7ACFF044660B9404601F08B
:103120002DFD3B780BB1FFF78DFFAD1BB044F1D106
:103130002046BDE8F0816FF08B04F9E704482B4688
:103140003A464521DBE700BF1794000048100020F5
:10315000F59300002DE9F8430E4630461946174610
:103160001C4604F0F3FB48B91B4823463246452170
:1031700004F02EFA6FF01500BDE8F88346EA040566
:1031800015F0030504D01548234632464521EFE7E4
:10319000FCB1DFF850902B19032BA6EB050806D8DD
:1031A0000F4AD2F80034DB07FBD50020E4E7FFF735
:1031B0005FFF58B97B1B4046196801F0FFFC99F886
:1031C00000300BB1FFF73EFF043DE4E76FF08B00EA
:1031D000D2E72046D0E700BFF59300003B94000003
:1031E00000E0014048100020F0B54068057B01F088
:1031F0001F0444EA4514056987B0002D64D0B2F578
:10320000001F00F1100506D12146284604F060FE9B
:10321000002007B0F0BD01AE0027B2F5800F019786
:10322000776039D1B3F1007F14BF052304238DF8F3
:1032300004300023CDE904630393836823FA01F18A
:1032400011F001011AD1B2F1A07F17D104F01F03D0
:10325000620903F5E0732AD0012A3BD11F4A52F8D4
:103260002330DB070AD40DF10306324621462846F7
:1032700001F0E2FA1A4B98421CD0029603AA2146AA
:10328000284601F09BF9174B984220D10122214694
:10329000284601F035FBBBE7B3F1C06F05D0B3F1B1
:1032A000007F14BF01230223C1E70323BFE74FF0D0
:1032B000A042D4E73146284601F01CFB094B984256
:1032C000DBD06FF00B00A4E76FF08500A1E76FF093
:1032D00015009EE751F82330FFDE00BF00030050C9
:1032E0000400AD0B0000AD0B38B545682B69B3B1D8
:1032F0001035284601F0EEFA044680B9014628460A
:1033000001F0B4FA084B98420BD1084922462846EE
:1033100001F08CFA224605210620FEF787FF0020E7
:1033200038BD6FF00400FBE70000AD0B3133000047
:10333000420970B5034602D0012A17D070BD0D4E68
:10334000326951680029F9D003F01F0301250C6888
:103350009D400029F2D08A682A4002D04B6830464E
:1033600098472CB1236821461C46F2E7024EE7E756
:103370002346F8E754800000408000002DE9F04328
:10338000466840F20635D006337B87B002EA050571
:1033900054BFC2F34010032001F01F07B5F5837F2F
:1033A000144647EA43178DF8030045D00FD8062D81
:1033B00018D007D8B5B1022D40D06FF0150007B076
:1033C000BDE8F083B5F5807FF7D101250AE040F232
:1033D0000222954234D0B5F5407F33D0B5F5007F59
:1033E000EBD102250123220303FA01F12CD57368E6
:1033F000C3F80815326982BB07F01F037F0929D083
:10340000012F77D13E4A02EB830284F48033D2F855
:103410000017C3F30043C4F3404444EA430421F4D7
:10342000E16144EA800421F0070144EA05230B43EB
:10343000C2F800370020C2E70725D3E70425D1E70B
:103440000525CFE70325CDE7630344BF7368C3F8C1
:103450000C15CFE74FF0A042D5E710360DF1020270
:103460003946304601F0E8F914F4403F80460CD16B
:103470003946304604F02AFD224B9845DAD19DF8B2
:103480000210304601F030FAD4E701AB4FF00009EA
:1034900003AA39463046CDE90439CDE90199CDF882
:1034A0000C9001F08BF8174B984286D114F400333E
:1034B00015D09DF803308DF80E3084F48034C4F3B9
:1034C00000444B4603AA394630468DF80C508DF81F
:1034D0000D4001F02DF90B4B9842CDD06DE7CDE9B1
:1034E000043303AA0DF1030339463046039301F078
:1034F00065F8F0E703F5E07352F82330FFDE00BF14
:10350000000300500000AD0B036803F01F025B09CD
:10351000026004D0012B034818BF002070474FF011
:10352000A0407047000300502DE9F04FDFF888A15C
:10353000DFF888B185B01546804600EB810140F286
:10354000FF19414503D1002005B0BDE8F08FD8F840
:1035500000305804C3F3C322C3F3080400F1A6806B
:103560001B0E1AF802604C4508BF4FF0FF34222BA7
:1035700000F29F80DFE803F0122229362C32369DBC
:103580009D9D9D39409D9D9D9D9D9D9D9D9D437EA5
:1035900081849D9D9D878B8E91949700C5F80C45E5
:1035A000621C64D003A80394FFF7AEFF039B0127BE
:1035B00007FA03F3C0F808353A4635E0C5F8144574
:1035C0000027631C53D000222EE0C5F80845E7E72A
:1035D000C5F808450027601C1CD148E0C5F80C451B
:1035E0000127F8E7C5F81045EAE7C5F80845002EB9
:1035F000E6D100270626E4E7C5F80C45F7E7C5F84D
:103600006045B8F80230671C03F001032FD0002B8F
:10361000C8D1012703A80394FFF776FF039B01227B
:1036200002FA03F3C0F80C35D8F80030019303F424
:103630000040002818BF002203A8009218BF0127ED
:103640000394FFF761FF039C019B009A00EB840049
:10365000C3F3412CD0F80047330243EA8C031343F1
:1036600004EA0B04234343EA4703C0F8003708F198
:10367000040866E7C5F86445C3E7C5F86845C0E7D0
:10368000C5F86C45BDE7C5F82445012799E7C5F89D
:10369000284585E7C5F83045F7E7C5F83445F4E730
:1036A000C5F83845F1E7C5F83C4579E76FF01500F6
:1036B0004AE76FF0850047E79E940000F0F8FCFFB2
:1036C0002DE9F041044647680D4604F050FC4FF0E8
:1036D000200868B9244B1B7853B16426606804F055
:1036E0002BFAD0B9012004F065FB013EF6D1F4E7D6
:1036F000EFF31186314688F31288BFF36F8F60684D
:1037000004F01AFAA8B986F31188BFF36F8FEFE7B8
:1037100086F31188BFF36F8FDFE7EFF31186314631
:1037200088F31288BFF36F8F606804F005FA0028F1
:10373000EED0BB691D706368BA691B680020C3F8CE
:1037400044250122C3F84825C3F82001D3F82041BD
:10375000C3F85801D3F858019A6081F31188BFF378
:103760006F8FBDE8F08100BF4B100020F7B5064613
:10377000002201210220FEF759FD0220FEF726FD5E
:10378000726811681369C1F82435137D507D927DEC
:1037900003431343C1F86C357768D7E9004313F04E
:1037A00001051CD0356905F1080004F00FFB2D4B15
:1037B000984207D02C48452103F00AFF6FF004001F
:1037C00003B0F0BD287A04F10C0204F5907104F006
:1037D000F3FA287A012505FA00F000F0D3FC08235B
:1037E000C4F80035BB69C4F8443501220023C4F88D
:1037F0004835A2606DB9D4F82021002AFBD0C4F866
:103800002031D4F820310123E3604FF48073C4F8F1
:103810000433D4F85831002BFBD00021C4F8001534
:103820007368DC6801AA204604F059F9002805DB1A
:10383000019B226819791868FFF776FE7268136891
:103840000821C3F80015117A51B9D269C3F834259B
:103850000122C3F83825C3F81011D3F810111A60EB
:103860000020ADE70000AD0BA694000070B5012369
:1038700083400E4ABFF35B8FDC4352E8001F01EA2E
:10388000040542E80056002EF7D1BFF35B8F4FF4DA
:10389000803282400648C0F80823BFF35F8FBFF331
:1038A0006F8F0B4214BF0120002070BDB80E0020A6
:1038B0000010014070B40E49D1E90034D01AC31889
:1038C00044F1000422F07F46C1E90034A6F500135C
:1038D000B3F5400F09D2074B1B681A0A1B069C1947
:1038E000054B42F10005C3E9004570BC01F0FABD8B
:1038F00020010020BC0E00202801002011B3BFF3DE
:103900005B8F0123104A834052E800CF4CEA030C3E
:1039100042E800C10029F7D1BFF35B8F0B4A4FF497
:1039200080338340C2F80433094BBFF35B8F1B68BD
:10393000BFF35B8FC340DB0742BF064B4FF400323F
:10394000C3F80021704700BFB80E002000100140EE
:10395000B40E002000E100E00D4B1868010A0006DB
:10396000BFF35F8F0B4BD3F80435181841F10001FA
:10397000B3F5801F0AD2084BD3E90023904271EBC4
:10398000030303D210F1807041F10001704700BFC2
:10399000BC0E002000100140280100202DE9F04F4E
:1039A00085B016461F469DF840A00446FFF75EFF0F
:1039B0000190FFF7D1FFB04271EB070354D23E4BA9
:1039C000301A67EB0101984271F100014FD23B4B75
:1039D00003EB0413D3E902239F4208BF96425ED053
:1039E00037494FF4803804F1500508FA04F8AD0067
:1039F000C1F848832046ADB204F0CFF826F07F4BE3
:103A000005F1804504F5A87305F58835DC464FF0CF
:103A100003090293029A2CF07F4341F82230C1F847
:103A20004483D1F80435274A6FF00200C01A60447D
:103A300020F07F40904232D9286868B1D1F804352F
:103A40000393A3EB0B0020F07F40B0F5000F26D9C5
:103A5000204604F0A2F8039BBAF1000F07D109EB4E
:103A6000030C09F10109D5E7BAF1000F09D06FF095
:103A7000150520460199FFF741FF284605B0BDE82E
:103A8000F08F0123104ABFF35B8FA34052E8000F71
:103A9000184342E800010029F8D1BFF35B8F0749C2
:103AA0000E98230101EB0412C8500F9B5360C2E92A
:103AB00002670025DDE700BF010080001001002043
:103AC00000100140FDFF7F00B40E00207FB51C4CAC
:103AD0001C4BC4F80833C4F848331B4B00254FF087
:103AE000FF304FF0FF31C4F80855C3E902014FF42D
:103AF0008033C4F80433154B02264FF40032012101
:103B0000C4F804631120C3F880212A46FEF78EFB17
:103B10001120FEF75BFB0E4A0123A36023601360B4
:103B20000C4B0D4A0093CDE9015500232846FFF7C1
:103B300035FF3046FEF776FE284604B070BD00BF64
:103B40000010014003000F001001002000E100E020
:103B5000B80E0020B5380000FFFF7F002DE9F34DBF
:103B60002D4CD4F8043399070BD5D4F8043143B164
:103B70002A4A0023C4F80431D4F80431136801330D
:103B80001360D4F80433DA0341D5BFF35B8F244BC1
:103B900053E8002F22F0010143E800100028F7D17C
:103BA000BFF35B8FD30702D4D4F840317BB3002539
:103BB000C4F84051D4F84031FFF7CEFEEFF3118244
:103BC000202383F31288BFF36F8F164BD3E902676C
:103BD000B042B9411ED34FF0FF3A4FF0FF3BC3E96B
:103BE00002ABD3E900181D604FF48033C4F84833AA
:103BF000C4F84051D4F8403182F31188BFF36F8F7D
:103C000029B1CDF8008032463B460020884702B0FB
:103C1000BDE8F08D2946EFE700100140BC0E002002
:103C2000B40E00201001002030B5431C124C85B0AA
:103C300005D08442A8BF0446012CB8BF0124FFF779
:103C40008BFE0E4B0C4DD3E90013401AB0F5000F5C
:103C500010D22218AA4228BF2A4652184FF000005C
:103C600007490091CDE9010043F10003FFF796FEFB
:103C700005B030BD2A46F0E7FFFF7F00200100209D
:103C8000B538000008B5FFF767FE024B1B68C01A85
:103C900008BD00BF2001002010B5084C012363605F
:103CA0001120FEF7A1FA064BC4F80833C4F84833D4
:103CB000044B4FF40032C3F8802110BD00100140C6
:103CC00003000F0000E100E030B50C490C4D0B681B
:103CD0000246002405EB0310D0F80808C0B218B95A
:103CE00004B10B60002007E00133072B4FF0010403
:103CF000F0D90B606FF01B00136030BDC00E0020C8
:103D000000E0014030B5816885B0103921F007042A
:103D1000054603F0B6FC10220146684603F053FD49
:103D200007491022684603F043FD10236A462146E6
:103D3000284603F070FC003818BF012005B030BDE4
:103D4000F086000030B50D46816887B0102302AAC6
:103D50001039044603F04AFC002802DA012007B0BB
:103D600030BD102202A9204603F084FF00283AD17A
:103D70001E49102202A803F0F4FC00280CBF012306
:103D800002232B70204603F061FF012301460DF151
:103D90000702204603F02AFC0028DFDB9DF80730ED
:103DA00003F00F021B096A702B7101220DF107014C
:103DB000204603F05FFF10B96B78042B03D9012371
:103DC0006B7000232B71A268183A22F00702083AA0
:103DD000A91C204603F061FF0028BFD1E91C204642
:103DE00003F0B4FFBBE70323CBE700BFF08600007E
:103DF000F0B5354F460085B00546694657F82600B0
:103E000003F0AAFF044610B1FF2005B0F0BD013653
:103E100002A957F8260003F09FFF012837D12B484D
:103E20002A46492103F0D4FB294B02938DF80C401C
:103E30009DF800609DF80870264C002220783146DD
:103E400003F00AFF50B36078394603F005FF28B34A
:103E5000A378042B03D09DF8031099421ED1E37878
:103E6000042B03D09DF80B10994217D12379042B12
:103E700010D16279022A1DD1174B18482A464921D0
:103E800003F0A6FB6079831E022BBED9BCE7002895
:103E9000CED0B9E79DF802109942EAD00132032A48
:103EA00004F10604CAD10E482A46492103F090FBCA
:103EB0000120AAE7032A05D00A4B0B49042A08BFB0
:103EC0000B46DAE7094BD8E7148500000B95000094
:103ED00003010303A0950000ED9400005695000037
:103EE0007A950000F294000004950000E894000028
:103EF0004FF08053D3F83021082A06D1D3F834315B
:103F0000052B02D8024AD05C70470020704700BFE2
:103F1000B8950000024AD2F80034002BFBD070475D
:103F200000E0014010B54FF08053D3F83021082A4B
:103F30004ED14FF080420021C2F80C11C2F810118E
:103F4000C2F8381502F54042D3F80414C2F820151F
:103F5000D3F80814C2F82415D3F80C14C2F82815A5
:103F6000D3F81014C2F82C15D3F81414C2F8301575
:103F7000D3F81814C2F83415D3F81C14C2F840153D
:103F8000D3F82014C2F84415D3F82414C2F8481505
:103F9000D3F82814C2F84C15D3F82C14C2F85015D5
:103FA000D3F83014C2F85415D3F83414C2F860159D
:103FB000D3F83814C2F86415D3F83C14C2F8681565
:103FC000D3F84014C2F86C15D3F84434C2F87035F5
:103FD000FFF78EFF18B1414B414AC3F88C26FFF71B
:103FE00087FF18B13F4BFB22C3F81825FFF780FF6E
:103FF00070B14FF080414FF08053D1F8E42ED3F8E8
:10400000583222F00F0203F00F031343C1F8E43ECD
:10401000FFF76EFF20B1344B4FF40072C3F8402617
:104020004FF08053D3F83031082B09D14FF0804343
:10403000D3F80024D20744BF6FF00102C3F8002474
:104040002A4AD2F8883043F47003C2F88830BFF3AC
:104050004F8FBFF36F8F4FF08053D3F83021082A72
:104060000ED1D3F83431052B02D8214AD35C3BB1B1
:104070004FF01023D3F808224FF08043C3F858259F
:104080004FF01023D3F80022002A03DBD3F80432C8
:10409000002B22DA174901234FF01020C1F8043514
:1040A0001224FFF737FFC0F80042FFF733FFC0F8D4
:1040B0000442FFF72FFF0023C1F80435FFF72AFF62
:1040C000BFF34F8F09490C4BCA6802F4E0621343F7
:1040D000CB60BFF34F8F00BFFDE710BD0050004025
:1040E0004881030000F000400090024000ED00E035
:1040F000B295000000E001400400FA0530B5046804
:10410000CCB1BFF35B8FB4FA84F3C3F11F03DBB20E
:1041100001229A4024EA020250E8005FA54204D13D
:1041200040E8002CBCF1000FF6D1BFF35B8FE6D165
:1041300002480B7030BD0248FCE700BF0000AD0B29
:104140000200AD0B10B50368CB40DB0714D401238C
:104150008B400268BFF35B8F43EA020150E8004FD7
:10416000944204D140E8001CBCF1000FF6D1BFF32B
:104170005B8FEED1014810BD0148FCE70000AD0B9C
:104180000400AD0B014BC3F80405704700F001407B
:10419000F7B5044618B1012822D003B0F0BD4FF0A6
:1041A00080430222C3F808230122DA60C3F8040125
:1041B000D3F80431054601238DF8073042F2107719
:1041C0004FF08046CCB1012CE7D1D6F80C34C3F3C4
:1041D00000433DB3D6F80C2402F001022A7016E029
:1041E0004FF080430022C3F808035860C3F8002151
:1041F000D3F800310DF10705DDE7D6F81834C3F325
:1042000000437DB1D6F8182402F003022A601BB1E6
:104210009DF80730012B07D0012CBED1054B0022A1
:104220005A71BAE7002BF7D0012003F0C3FD013F1C
:10423000C8D1F1E7C40E0020044B1A7922B901223B
:1042400018609A800248704702487047C40E0020E8
:104250000000AD0B0C00AD0B08B5074B1B682BB174
:104260000020FDF7D5FF08B9FDF7B0FF4FF0804300
:104270000022C3F8182508BDC40E002010B510B1E7
:10428000012843D010BD4FF08043D3F81814D3F861
:104290001824C80321D502F00303012B04D013B165
:1042A0000020FFF775FF00234FF080420220C2F884
:1042B000183508224FF4827303F1804300211960FE
:1042C00002F180421C6801241460154A12680AB386
:1042D0004FF08043C3F80403D4E7D3F81424D10784
:1042E000E1D5D3F81C249207DAD40D4A12681AB12A
:1042F0000222C3F80423C5E7D3F80421002AFBD027
:104300000022C3F80421D3F80431BBE700224FF4A4
:104310008073D1E71A68002AFCD019601B68B1E7E6
:10432000C40E002010B54FF08043D3F800216AB1CD
:104330000022C3F80021D3F800210122C3F808238A
:10434000114B587910B95A711B6898474FF0804348
:10435000D3F8042172B10022C3F80421D3F8042158
:10436000D3F81824D3F81824920704D10122C3F8F3
:1043700018259A6010BD0222C3F80823024BBDE83D
:1043800010401B6801201847C40E0020036803F08A
:104390001F025B09026004D0012B034818BF0020F4
:1043A00070474FF0A040704700030050034A430994
:1043B00000F01F00D35C1844C0B27047BE950000E7
:1043C00070B50546FFF7F2FF0C4C08300E4634F886
:1043D0001030DA0508D5C3F3432304EBC3022846A3
:1043E00054F8333052689847A3682BB1E2683146DD
:1043F0002846BDE87040184770BD00BF140000207B
:1044000008B5FFF7D3FF034B083033F81000400B1B
:1044100008BD00BF1400002008B5FFF7C7FF034B1D
:10442000083033F81000C0F3400008BD140000202D
:1044300008B5FFF7BBFF034B083033F81000C0F39B
:10444000401008BD14000020034611F0010010B513
:10445000CCB20DD1A207C4F3400012D5094AD2F85C
:1044600020055860C2F82005003818BF012008E078
:104470004FF0A041D1F820251A60C1F82025002A6C
:10448000E8D010BD0003005010B5FFF78FFF124AAF
:10449000083032F81030D9051CD5C3F3432123F47A
:1044A000F85322F8103002F10E04002034F8023FD5
:1044B00013F4807F03D0C3F3432399420AD0013021
:1044C0003028F3D1002342F831300448BDE81040D1
:1044D000FFF738BE10BD00BF140000208C00002084
:1044E000F0B5054600200446012607468C420BD154
:1044F000114BD3F87C2132B10022C3F87C21D3F8D0
:104500007C3140F00040F0BDE3B29B0003F58072C7
:104510009B0806FA03F31D420BD002F1804202F51C
:10452000C042D2F800C0BCF1000F02D01760126880
:1045300018430134DAE700BF00600040F7B50646D3
:104540000846FFF733FF194F00F108050C4637F80E
:104550001530DB0727D5304603F094FC2046FFF7E3
:1045600067FF40B12046FFF74BFF316800F5A270AE
:10457000002341F820302046FFF786FF002301A8E2
:1045800027F815300194FFF701FF019B00EB830032
:10459000074BD0F80027134043F00203C0F8003760
:1045A000044803B0F0BD0448FBE700BF140000203E
:1045B000F0F8FCFF0000AD0B0400AD0B2DE9FF414E
:1045C000164680460846FFF7F1FE0D463168044660
:1045D00009B32846FFF720FF18B12846FFF728FF48
:1045E00010BB0023CDE900338DF80E308DF80F306D
:1045F0000DF10F020B4628460DF10E0103F0EAFB08
:10460000474A04F1080132F8113023F0020343F065
:10461000010322F81130736863B328461F78596884
:10462000FFF7FAFE10B1D1B13E4826E03C4A04F152
:10463000080032F8103023F02003DB04DB0C22F8F2
:10464000103061B1032FEFD87168496891F800C04C
:10465000D8F80010A7B90CF5A27C41F82C70304AAC
:1046600004F1080132F8113023F01C0343EA8703F8
:1046700022F81130B3684BBB2B4804B0BDE8F08181
:1046800001EB8C0143EA4C33D1F810E52EF0030E18
:10469000C1F810E5D8F8001001EB8C0E43F02003B0
:1046A000DEF8101522F8103021F44F3121F440715A
:1046B000CEF810152902DEF8108501F47C5141EA8C
:1046C000074141EA0801CEF81015C8E7D3E90067B1
:1046D0002846FFF7D9FE002ECED0114DD5E9002394
:1046E000964203D19F4201D1002209E00F480DF10B
:1046F0000F01FFF703FD0C4B9842BED19DF80F2030
:1047000045F8326005EBC20308345F6035F81430B9
:1047100043EA422343F4807325F81430ACE700BF2A
:10472000140000200400AD0B0000AD0B8C00002035
:104730002DE9F0430C4685B08046204611461E46C2
:10474000FFF734FE054629B32046FFF765FE18B98A
:104750002046FFF76DFE18BB314F05F1080937F809
:10476000193013F01C0F02D04B78012B18D0012305
:104770008DF80F300023CDE900134A1C8B1C204616
:104780000DF10F0103F026FB37F8193043F0030356
:1047900027F81930002E41D02046FFF73DFE18B90A
:1047A000204805B0BDE8F08396F800C0D8F8003086
:1047B0001B4F0CF5A272002143F8221005F10802EC
:1047C00037F8121021F02001C904C90C27F8121083
:1047D00075781DB3D8F80000B67800EB8C002D0476
:1047E000D0F8103523F4991323F4F853C0F810359A
:1047F000230203F47C5305F440353605D0F810E568
:104800002B4306F4801641EA4C31334341F020013A
:1048100043EA0E0327F81210C0F810350248C0E72B
:10482000140000200400AD0B0000AD0B014BC3E9E8
:10483000021270471400002010B508461446FFF716
:10484000F7FD50B10846FFF7B1FD054B083033F8CE
:10485000103004485B0B237010BD0348FCE700BF19
:10486000140000200000AD0B0400AD0B70B5164D18
:1048700095F8804006462CBB2146602205F11000C9
:1048800002F0A1FF30682E6F21468E420ED1002328
:10489000C0F87C31D0F87C3140F30730FDF796FC4E
:1048A00001230A4885F88030AB6770BDCBB29B000E
:1048B00003F580727C2B08BF845001F1010108BF11
:1048C0008358E2E70248F0E7140000200000AD0B37
:1048D0000C00AD0B034B93F88000003818BF01208B
:1048E000704700BF140000200148FFF72BBC00BF39
:1048F000880000200148FFF701BC00BF88000020AD
:1049000073B503681646D3F80423002AA8BF4FF0F6
:1049100000420546A8BFC3F8042308460C46FFF72B
:1049200087FD00B30846FFF777FD0146D8B920465A
:10493000FFF766FD04B2A40004F580720346286800
:104940008150296882582144D1F8102542F0010293
:10495000C1F810252EB12968012202FA03F3C1F82B
:10496000043302B070BD2046FFF720FD0F4B083026
:1049700033F81030C3F38203042B12D0052B12D06E
:1049800001A80194FFF702FD019AD0F81035D34039
:1049900003F00103991C204602B0BDE8704003F00B
:1049A00062BA0321F7E70221F5E700BF14000020F7
:1049B0002DE9F04F674BDFF8A881D3F80403D8F84E
:1049C0007010C0B289B040F00040FFF789FD051EAD
:1049D0002EDAC24600235AF87C1F06A8CDE906331A
:1049E000FFF732FD5C4B02930DF118090023029A88
:1049F000019312F8013B0292DA0803F007031AF858
:104A0000022022FA03F3DA071AD4019B09F1040900
:104A1000A3B1D8F870104FF00040FFF761FDD8F84F
:104A20007C1006A8FFF710FD0028DBD125F000451B
:104A30000124002D75D109B0BDE8F08F0123D6E720
:104A4000019B464A13440393D9F80060002EDCD042
:104A5000039B96FAA6F61C78B6FA86F646EA441444
:104A60002046FFF7A3FCF2080830012338F8107045
:104A700019F80200059406F0070603FA06F620EA84
:104A8000060009F8020005A8FFF780FC059A02F568
:104A9000E072B90850F82260C7F3820B4B075F46FB
:104AA000C6F3014624D520465946FFF789FC05A8E0
:104AB0000594FFF76BFC059B03F5E073F6B250F825
:104AC0002330C3F301439E4207D10021204603F067
:104AD000CAF93146204603F0C6F905A80594FFF748
:104AE00055FC059B012202FA03F3C0F82035ABE721
:104AF000022E0CBF03210221204603F0B4F9BBF1C2
:104B0000030F04D0022E07D1BBF1010FE5D13946C6
:104B10002046FFF755FCE0E7032EDED1BBF1020F84
:104B2000F4E795FAA5F3B3FA83F304FA03F29B00D2
:104B300003F1804303F5C04325EA0205D3F81005CD
:104B4000D3F81015C0F30520C1F30141FFF738FC7D
:104B50006FE700BF00600040CE950000CE950000DA
:104B600014000020044AD2F80034DB07FBD50160B2
:104B7000BFF35F8F704700BF00E001404FF08053EC
:104B80001A69B0FBF2F302FB130373B9084B02225C
:104B9000C3F80425C3F80805D3F80024D207FBD5D1
:104BA00000220448C3F8042570470348704700BF3B
:104BB00000E001400000AD0B0A00AD0B10B5054C44
:104BC0000123C4F80435FFF7CDFF0023C4F80435F2
:104BD00010BD00BF00E0014001460148FFF78EBA5A
:104BE0009800002070B5104D6C6B9CB14FF47A7337
:104BF0005C430A23B4FBF3F40C4ED6F8003163B9DE
:104C000095F839304BB90A2003F0D4F8013CF4D1BF
:104C1000074870BD4CF25034EEE795F83930002B60
:104C2000F6D10448F5E700BFCC0E0020009002400A
:104C30000700AD0B0000AD0B094B10B5002201249D
:104C4000C3F80045C3F800211C6038B1FFF7CAFF64
:104C5000044B984203D1044B83F83840014810BDFF
:104C6000009002400000AD0BCC0E002070B500F0AB
:104C70006044B4F1005F5DD184075BD12F4C94F8A0
:104C80003050012D05D09D4256D194F83850002D5A
:104C900052D02B4D022B0BBFC5F81025C5F80425AB
:104CA000C5F81405C5F808050CBFC5F81815C5F8F2
:104CB0000C154FF0000684F8396026680CBF0825F3
:104CC0000425BEB994F838306BB11D4B05F1804511
:104CD00005F524350022C3F8002101232B60BDE82F
:104CE0007040FFF77FBF0120FFF7A6FF154B9842EA
:104CF000EBD170BDA66826B1E0606161E261124847
:104D0000F7E7A2610E4A84F830300123A0602161E8
:104D1000C2F80061C2F8043394F8382002F0FF00B2
:104D200012B9FFF789FFEAE705F1804505F524355B
:104D30002B60E4E70548DCE70548DAE7CC0E002005
:104D4000009002400700AD0B0000AD0B0A00AD0B58
:104D50000B00AD0B084B9A685A621A699A629A69FD
:104D6000DA62DA689A6032B15A691A61DA699A616C
:104D70000022DA6070477047CC0E002000F01F035D
:104D800040090FD0012810D10B4A02EB83020B4BD4
:104D9000D2F80007034043EA012343F00203C2F8BC
:104DA000003770474FF0A042EFE7002203F5E073B1
:104DB00052F82330FFDE00BF00030050F0F8FCFF84
:104DC00010B50E4B0238D3F83C26D3F838360728F6
:104DD00013D8DFE800F0110F0D0B0A080604100EBF
:104DE000C871100C8871100A48710A711A0ECA70C5
:104DF0001A0C8A701A0A4A700B7010BD009002409B
:104E0000023807281FD8DFE800F0292725112321C1
:104E10001F04CB791B068A7943EA02434A7943EAA5
:104E200002230A7913430E4AC2F83C36CB781B069C
:104E30008A7843EA02434A7843EA02230A78134312
:104E4000074AC2F8383670470023E4E70023E5E755
:104E50000023E6E70023EBE70023ECE70023EDE780
:104E6000009002400268154BFF2A08BF4FF0FF3246
:104E7000C3F824254268FF2A08BF4FF0FF32C3F869
:104E800028258268FF2A08BF4FF0FF32C3F830257B
:104E9000C268FF2A08BF4FF0FF32C3F83425026909
:104EA000FF2A08BF4FF0FF32C3F838254269FF2AB6
:104EB00008BF4FF0FF32C3F83C2570470090024016
:104EC0000A4B002283F83820094B01214FF0805013
:104ED000C3F808131961D0F83001082808BF5965D4
:104EE000C3F80025C3F80021704700BFCC0E002096
:104EF0000090024030B5194D0FCD8DB006AC0FC4F7
:104F000095E8030084E803001549D1F82435DBB2A5
:104F10000093D1F82835DBB20193D1F83035DBB2FC
:104F20000293D1F83435DBB20393D1F83835DBB2D4
:104F30000493D1F83C3506A8DBB20593FFF792FF46
:104F40000023C1F8003101230B60D1F80031002BA0
:104F5000FBD06846FFF786FF0DB030BD9882000099
:104F60000090024070B590F82930044613B190F8D3
:104F70002A204ABB6068FF2860D0A268FF2A5DD063
:104F8000E268FF2A5AD02269FF2A57D0B3B9032119
:104F9000FFF7F4FEA068FFF7F1FEE068FFF7EEFE12
:104FA0002069FFF7EBFE6069FF2801D0FFF7E6FEFE
:104FB000A069FF2802D00321FFF7E0FE94F82A3011
:104FC00013B9201DFFF74EFF1D4E636A73631D4D1D
:104FD00094F8293086F83A300123C5F80833FFF7F2
:104FE00089FF2368C5F84035A37F617F227F9B013D
:104FF00043EAC1031343E27F43EAC213C5F84435D1
:10500000D5F8002694F8203022F07F4222F0FF02EB
:10501000134394F8212043EA026394F8222043EAE0
:10502000426394F8232043EA0273C5F800363368DC
:1050300013B12920FDF7CAF8034870BD0348FCE707
:10504000CC0E0020009002400000AD0B0400AD0B20
:1050500038B50C4C94F8305095B9C4E9001248B9F1
:105060000023C4E902330122074884F8302084F881
:10507000383038BDFFF776FF034B9842F9D1EFE7A0
:105080000248F6E7CC0E00200000AD0B0C00AD0B83
:105090002DE9F843DFF8A090074699F83000012881
:1050A000884614463DD199F838301F4E6BB31F4DDA
:1050B0000123C5F80833FFF71DFFB8F1000F2BD10E
:1050C0004FF0000889F83980C5F80081BB787A78FC
:1050D0001B0343EA02233A781343FA7843EA423344
:1050E0003A7943EA82337A7943EAC233C5F83436EF
:1050F000FFF778FDB0420CD0C5F800811CB178787C
:105100002146FFF75DFE0A4804E0FFF795FDB04237
:10511000CDD10548BDE8F88378784146FFF770FEA9
:10512000CEE70448F6E700BF0700AD0B0090024051
:105130000000AD0B0B00AD0BCC0E0020034B93F821
:1051400038300BB9FFF778BD01487047CC0E00200E
:105150000C00AD0B08B5054B93F83030012B03D193
:10516000FFF7AEFE024808BD0248FCE7CC0E002067
:105170000000AD0B0B00AD0B034B93F83000003873
:1051800018BF0120704700BFCC0E002038B58B0738
:1051900035D11D4B1D681DB193F83020012A30D147
:1051A0001A4C0022C4F81C15C4F8200583F83920D5
:1051B00095B993F8383043B10023C4F80031012386
:1051C000E360BDE83840FFF70DBD0120FFF734FD77
:1051D0000F4B9842F0D138BD042183F83010C4F849
:1051E00000210122C4F8042393F8383003F0FF00B3
:1051F0001BB9FFF721FD0748EDE7E260FBE7064832
:10520000E9E70648E7E700BFCC0E00200090024027
:105210000700AD0B0000AD0B0A00AD0B0B00AD0B92
:1052200010B5224BD3F8002192B1214C0022C3F8D3
:10523000002194F8381094F8302071B90121032A24
:1052400084F8381005D0042A05D0022A00D19960CC
:1052500010BD5960FCE7D960FAE7032A19D0042A87
:1052600019D0022A04D1012384F82030FFF772FDFF
:10527000A36813B9012384F8303094F8393003F06F
:10528000FF0013B9D4E900319847002384F8203097
:10529000DEE70223E8E7032284F82020D3F81C2568
:1052A0006262D3F8203584F82830E1E700900240AC
:1052B000CC0E002010B545210446034802F088F9C1
:1052C000204602F02FFE00BFD095000073B50446C3
:1052D0000D46EFF31186202383F31288BFF36F8FFF
:1052E000104A042898BF104B127C94BF53F820300A
:1052F0000E4B0092452102460D4802F069F93DB17E
:10530000EB69C3F308031BB10A48452102F060F9B9
:1053100029462046FFF7CEFF86F31188BFF36F8F33
:1053200002B070BD080F00201C850000E49500004D
:10533000F29500001F96000038B5094B53F8204045
:10534000013053F82050A54200D838BD636823B11E
:10535000204602F0EFFD0834F5E723689847FAE7A6
:105360003085000008B50A4B012203201A70FFF7B0
:10537000E3FFFCF739FC02F0F9FD0420FFF7DCFF46
:10538000FBF736F8034A137B23F00103137308BDC0
:105390004B1000203001002008B50348034A0021CB
:1053A000121A02F0DFFD08BD100100204C10002091
:1053B00008B50020FFF7C0FF184B83F30888184C8E
:1053C000636943F4007363610025E02384F82230AD
:1053D000E57725766576A57684F82050636A43F4F0
:1053E000E023636284F82350FCF75CFEFCF796FF31
:1053F0004FF0FF33A362E362FDF738F8FCF7B2FF2A
:1054000002F084FD0120FFF797FF0220FFF794FFD1
:1054100004482B462A462946FCF764FFC0180020A2
:1054200000ED00E06553000008B50648064A07494C
:10543000121A02F099FDBDE80840054A05490648E0
:1054400002F092BD000000201001002094960000A0
:10545000000000009496000000000020034B1B6831
:105460000BB9FEF70FBC0020704700BF280F0020CB
:1054700030B570B10B4B5B6898420AD0036843B1FA
:10548000D3E90421D0E90445121941EB0501C3E930
:105490000421D0E9003213605A600023C0E90033D0
:1054A00030BD00BF9C00002010B50D4B1C689C4215
:1054B00008BF0024FFF7D2FF74B1D4E904321B1AED
:1054C00062EBE072B3F1004F72F1000104DA002ADE
:1054D000ACBF1846002010BD6FF00040FBE700BFD6
:1054E0009C0000202DE9F84FEFF31185202383F372
:1054F0001288BFF36F8FDFF8A880274F274E3860E0
:10550000D8F800004FF0000A404508BF00204FF0D7
:10551000000B3B68D6E9001E4FEAE37C50B1D0E9AE
:105520000442A3427CEB020916DAE41A62EB0C0295
:10553000C0E904425B184EEB0C020024C6E90032BD
:105540003C60FFF7B1FF2146FEF76EFB85F3118843
:10555000BFF36F8FBDE8F88F61184EEBE473C0E9BD
:1055600004ABC6E90013FFF783FF85F31188BFF38F
:105570006F8F83689847EFF31185202383F3128898
:10558000BFF36F8F3B68D8F800001B1B3B604045A2
:1055900008BF0020BDE700BF280F0020B001002099
:1055A0009C00002010B50A4C23681BB10123236026
:1055B000002010BD00F048F80028F7D00138062878
:1055C00003D8044B53F8200010BD034810BD00BFA2
:1055D0002C0F002048850000FE8FFFFFBFF34F8F88
:1055E0000549064BCA6802F4E0621343CB60BFF37F
:1055F0004F8F00BFFDE700BF00ED00E00400FA059B
:1056000010B40A4B0A490B4C4FF0FE32C3F8002489
:105610004968C3F80424C3F80824C3F80C24002301
:10562000C4F800355DF8044B084700BF00B00250D5
:10563000A400002000A00250D0E90012014BC3E9F1
:1056400000127047A400002038B500F02FF820B1F8
:10565000032400F063F8204638BD00F031F898B913
:1056600000F0ACF898B90F4DD5F828391B0EF02B87
:1056700008D1D5F8242A0C4B9A420AD0072400F00E
:1056800017F8E6E70624FAE70424204638BD00248C
:10569000F5E7012000F092F804460028F7D1C5F89C
:1056A0000C0AD8E700B002500000E020002070474C
:1056B00000207047014BC3F8040A704700B0025045
:1056C00010B5114800F048F800B110BD0F4800F0C7
:1056D00043F80028F9D10E4C204600F03DF8002890
:1056E000F3D10C4B0C481C6000F036F80146002842
:1056F000EBD100F02DF8044608B1204610BD00F0B3
:105700003FF82046FAE700BFBC000020B8000020A8
:10571000B4000020AC000020B000002008B508480C
:1057200000F024F8074800F021F8074800F01EF8C0
:10573000064800F01BF8BDE8084000F00BB800BFB9
:10574000BC000020B8000020B4000020B000002001
:1057500000207047704700BF08B5034B02681B6804
:1057600010689847002008BDD400002008B5034BFE
:1057700002685B6810689847002008BDD4000020CC
:1057800070B5094C094D2069AB68984718B1084BB2
:1057900008485B689847084AEB6820690021116057
:1057A000BDE87040184700BFC0000020D4000020B2
:1057B000A400002064850000300F0020F8B51A4DC9
:1057C0001A4E0446B26828699047E8B9184F3B68FA
:1057D0004CB1A3B1012B19D0013B3B602869F368A0
:1057E00098470020F8BD43B9124A0121C2F80015BC
:1057F0001149D1F81029002AFBD101333B60F3682D
:10580000286998470020F8BD0C48F8BD0A4AD2F82C
:105810001039002BFBD1074A6FF07E40C2F80035EB
:10582000FFF748FF3B68D7E7C0000020D400002006
:10583000300F002000A0025000B00250E98FFFFF9F
:1058400010B5044650B1636813F0685F05D0064A8E
:10585000934202D000232360626010BD034B0448D2
:105860005B689847EFE700BF2C5F5CA9A4000020AD
:1058700084850000C8B143680D4A934213D013F0E9
:10588000685F0ED0012350E8002F194640E8001C45
:105890009CF0000FF7D1012AF5D0BFF35F8F0020F5
:1058A000704704487047044870476FF4E040704701
:1058B0002C5F5CA9E98FFFFFEA8FFFFF80B143688F
:1058C000094A93420AD013F0685F05D0BFF35F8F97
:1058D0000023036018467047044870470448704727
:1058E0006FF4E040704700BF2C5F5CA9E98FFFFFB9
:1058F000EA8FFFFF10B5044620B1044B636000221D
:10590000226010BD0248FFF77BFEF6E73A00003A3E
:10591000AC85000030B10268034B04489A4208BFCE
:105920000020704702487047DD55AABB8208F0008E
:105930007108F00038B50D460446B0B1A022002130
:10594000043002F033FB95B10822294604F16400CB
:1059500002F032FB082205F1200104F1840002F07C
:105960002BFB044B2360002038BD0348FCE70348B1
:10597000FAE700BFDD55AABB7108F0008308F0000C
:105980002DE9F74305460E4699461146FFF7C2FF3B
:105990000446002840F08480002E00F08580002915
:1059A00000F08480B9F1200F40F0828005F14404BA
:1059B000082205F10408204602F0FEFA05F124074A
:1059C00008223146404602F0F7FA06F1200108228B
:1059D000384602F0F1FA02A94FF4807041F8049DB4
:1059E00002F0DEFA002865D1334A4FF48073136069
:1059F000012193600823314A00F02EFB0121084663
:105A000005232F4A00F028FB0823424601211C20D1
:105A100000F022FB08233A460121032000F01CFB82
:105A2000224608230121022000F016FB0823254A04
:105A300001211A2000F010FB0523234A01211B201D
:105A400000F00AFB0823214A0121142000F004FB86
:105A500008231F4A0121152000F0FEFA082305F152
:105A600064020121162000F0F7FA082305F18402F0
:105A70000121172000F0F0FA0823164A01210B201B
:105A800000F0EAFA00F044FB0446019800F0D2FA74
:105A9000114B002C18BF1C46A421284602F088FA9E
:105AA000204603B0BDE8F0830C4CF9E70C4CF7E757
:105AB0000C4CF5E7084CEFE790B002501086000060
:105AC00088860000D08500007486000034860000BF
:105AD00054860000F08500008408F0007608F0008D
